{
  "address": "0xE87c4ABf2b54f674dE71F4D68336A2C362232B58",
  "abi": [
    {
      "inputs": [],
      "stateMutability": "nonpayable",
      "type": "constructor"
    },
    {
      "anonymous": false,
      "inputs": [
        {
          "indexed": true,
          "internalType": "uint256",
          "name": "id",
          "type": "uint256"
        },
        {
          "indexed": true,
          "internalType": "address",
          "name": "holder",
          "type": "address"
        }
      ],
      "name": "PotatoBurned",
      "type": "event"
    },
    {
      "anonymous": false,
      "inputs": [
        {
          "indexed": true,
          "internalType": "uint256",
          "name": "id",
          "type": "uint256"
        },
        {
          "indexed": true,
          "internalType": "address",
          "name": "from",
          "type": "address"
        },
        {
          "indexed": true,
          "internalType": "address",
          "name": "to",
          "type": "address"
        }
      ],
      "name": "PotatoPassed",
      "type": "event"
    },
    {
      "anonymous": false,
      "inputs": [
        {
          "indexed": true,
          "internalType": "uint256",
          "name": "id",
          "type": "uint256"
        },
        {
          "indexed": true,
          "internalType": "address",
          "name": "holder",
          "type": "address"
        }
      ],
      "name": "PotatoRewarded",
      "type": "event"
    },
    {
      "anonymous": false,
      "inputs": [
        {
          "indexed": true,
          "internalType": "address",
          "name": "player",
          "type": "address"
        },
        {
          "indexed": false,
          "internalType": "uint256",
          "name": "score",
          "type": "uint256"
        }
      ],
      "name": "ScoreUpdated",
      "type": "event"
    },
    {
      "inputs": [],
      "name": "TIME_LIMIT",
      "outputs": [
        {
          "internalType": "uint256",
          "name": "",
          "type": "uint256"
        }
      ],
      "stateMutability": "view",
      "type": "function"
    },
    {
      "inputs": [
        {
          "internalType": "uint256",
          "name": "id",
          "type": "uint256"
        }
      ],
      "name": "burnPotato",
      "outputs": [],
      "stateMutability": "nonpayable",
      "type": "function"
    },
    {
      "inputs": [
        {
          "internalType": "address",
          "name": "to",
          "type": "address"
        }
      ],
      "name": "createPotato",
      "outputs": [
        {
          "internalType": "uint256",
          "name": "id",
          "type": "uint256"
        }
      ],
      "stateMutability": "nonpayable",
      "type": "function"
    },
    {
      "inputs": [
        {
          "internalType": "uint256",
          "name": "id",
          "type": "uint256"
        }
      ],
      "name": "getPotatoHolder",
      "outputs": [
        {
          "internalType": "address",
          "name": "",
          "type": "address"
        }
      ],
      "stateMutability": "view",
      "type": "function"
    },
    {
      "inputs": [
        {
          "internalType": "address",
          "name": "player",
          "type": "address"
        }
      ],
      "name": "getScore",
      "outputs": [
        {
          "internalType": "uint256",
          "name": "",
          "type": "uint256"
        }
      ],
      "stateMutability": "view",
      "type": "function"
    },
    {
      "inputs": [
        {
          "internalType": "uint256",
          "name": "id",
          "type": "uint256"
        }
      ],
      "name": "getTimeLeft",
      "outputs": [
        {
          "internalType": "uint256",
          "name": "",
          "type": "uint256"
        }
      ],
      "stateMutability": "view",
      "type": "function"
    },
    {
      "inputs": [
        {
          "internalType": "uint256",
          "name": "id",
          "type": "uint256"
        }
      ],
      "name": "isActive",
      "outputs": [
        {
          "internalType": "bool",
          "name": "",
          "type": "bool"
        }
      ],
      "stateMutability": "view",
      "type": "function"
    },
    {
      "inputs": [],
      "name": "owner",
      "outputs": [
        {
          "internalType": "address",
          "name": "",
          "type": "address"
        }
      ],
      "stateMutability": "view",
      "type": "function"
    },
    {
      "inputs": [
        {
          "internalType": "uint256",
          "name": "id",
          "type": "uint256"
        },
        {
          "internalType": "address",
          "name": "to",
          "type": "address"
        }
      ],
      "name": "passPotato",
      "outputs": [],
      "stateMutability": "nonpayable",
      "type": "function"
    },
    {
      "inputs": [
        {
          "internalType": "uint256",
          "name": "",
          "type": "uint256"
        },
        {
          "internalType": "address",
          "name": "",
          "type": "address"
        }
      ],
      "name": "passedAtIndex",
      "outputs": [
        {
          "internalType": "uint256",
          "name": "",
          "type": "uint256"
        }
      ],
      "stateMutability": "view",
      "type": "function"
    },
    {
      "inputs": [],
      "name": "potatoCount",
      "outputs": [
        {
          "internalType": "uint256",
          "name": "",
          "type": "uint256"
        }
      ],
      "stateMutability": "view",
      "type": "function"
    },
    {
      "inputs": [
        {
          "internalType": "uint256",
          "name": "",
          "type": "uint256"
        }
      ],
      "name": "potatoes",
      "outputs": [
        {
          "internalType": "address",
          "name": "holder",
          "type": "address"
        },
        {
          "internalType": "uint256",
          "name": "receivedAt",
          "type": "uint256"
        },
        {
          "internalType": "bool",
          "name": "active",
          "type": "bool"
        }
      ],
      "stateMutability": "view",
      "type": "function"
    },
    {
      "inputs": [
        {
          "internalType": "address",
          "name": "",
          "type": "address"
        }
      ],
      "name": "scores",
      "outputs": [
        {
          "internalType": "uint256",
          "name": "",
          "type": "uint256"
        }
      ],
      "stateMutability": "view",
      "type": "function"
    }
  ],
  "transactionHash": "0x8afb315ecf1c40d1ca00d53077cef6723b158a27c9d2ffba1ddfa0f5cae723a3",
  "args": [],
  "numDeployments": 3,
  "solcInputHash": "20e4dc67bc901f4ef344b1e8c9e7afb3",
  "bytecode": "0x60a060405234801561001057600080fd5b5033608052608051610c0161003e6000396000818161017c015281816102c8015261055c0152610c016000f3fe608060405234801561001057600080fd5b50600436106100cf5760003560e01c80638da5cb5b1161008c578063d47875d011610066578063d47875d01461020a578063e774384d14610233578063e8c5876314610246578063e95a66231461025957600080fd5b80638da5cb5b14610177578063c93ac53f146101b6578063ca7050d6146101df57600080fd5b8063361c5f41146100d4578063698224ae146100f05780637406d164146100f95780637621c27d1461010e57806376dd110f1461012157806382afd23b14610141575b600080fd5b6100dd60005481565b6040519081526020015b60405180910390f35b6100dd61025881565b61010c610107366004610ae9565b6102bd565b005b6100dd61011c366004610b15565b61054f565b6100dd61012f366004610b15565b60026020526000908152604090205481565b61016761014f366004610b30565b60009081526001602052604090206002015460ff1690565b60405190151581526020016100e7565b61019e7f000000000000000000000000000000000000000000000000000000000000000081565b6040516001600160a01b0390911681526020016100e7565b61019e6101c4366004610b30565b6000908152600160205260409020546001600160a01b031690565b6100dd6101ed366004610ae9565b600360209081526000928352604080842090915290825290205481565b6100dd610218366004610b15565b6001600160a01b031660009081526002602052604090205490565b61010c610241366004610b30565b610665565b6100dd610254366004610b30565b61088d565b610296610267366004610b30565b60016020819052600091825260409091208054918101546002909101546001600160a01b039092169160ff1683565b604080516001600160a01b03909416845260208401929092521515908201526060016100e7565b336001600160a01b037f000000000000000000000000000000000000000000000000000000000000000016146103305760405162461bcd60e51b81526020600482015260136024820152724f6e6c79206f776e65722063616e207061737360681b60448201526064015b60405180910390fd5b6001600160a01b03811661037a5760405162461bcd60e51b8152602060048201526011602482015270125b9d985b1a59081c9958da5c1a595b9d607a1b6044820152606401610327565b6000828152600160205260409020600281015460ff166103d15760405162461bcd60e51b8152602060048201526012602482015271506f7461746f20697320696e61637469766560701b6044820152606401610327565b61025881600101546103e39190610b5f565b4211156104215760405162461bcd60e51b815260206004820152600c60248201526b151a5b5948195e1c1a5c995960a21b6044820152606401610327565b61042b81836109ca565b156104785760405162461bcd60e51b815260206004820152601e60248201527f526563697069656e7420697320696e20726563656e7420686f6c6465727300006044820152606401610327565b80546040516001600160a01b0380851692169085907f589bf4d69fc20c42c87069a9c68a11c91a0f185653de14ac79d235e2a83e561390600090a480546104c99082906001600160a01b0316610a2e565b80546008820180546001818101835560008381526020902090910180546001600160a01b0319166001600160a01b03909416939093179092555461050d9190610b72565b600093845260036020908152604080862084546001600160a01b03908116885292529094205580546001600160a01b0319169190921617815542600190910155565b6000336001600160a01b037f000000000000000000000000000000000000000000000000000000000000000016146105c15760405162461bcd60e51b81526020600482015260156024820152744f6e6c79206f776e65722063616e2063726561746560581b6044820152606401610327565b6001600160a01b0382166106095760405162461bcd60e51b815260206004820152600f60248201526e496e76616c6964206164647265737360881b6044820152606401610327565b600080815461061790610b85565b9182905550600081815260016020819052604090912080546001600160a01b0319166001600160a01b039590951694909417845542848201556002909301805460ff19169093179092555090565b6000818152600160205260409020600281015460ff166106c75760405162461bcd60e51b815260206004820152601760248201527f506f7461746f20616c726561647920696e6163746976650000000000000000006044820152606401610327565b61025881600101546106d99190610b5f565b421161071b5760405162461bcd60e51b81526020600482015260116024820152705374696c6c2077697468696e2074696d6560781b6044820152606401610327565b60028101805460ff19169055600881015460005b8181101561082d57600083600801828154811061074e5761074e610b9e565b60009182526020808320909101548783526003825260408084206001600160a01b039092168085529190925290822054909250908161078e600187610b72565b6107989190610b72565b6001600160a01b0384166000908152600260205260408120805492935083929091906107c5908490610b5f565b90915550506001600160a01b0383166000818152600260209081526040918290205491519182527f66ead48cfe0e1d1aa8bad492e906c348dfcfeecbf3b7b2cdf9b1f3cfa42a2945910160405180910390a2505050808061082590610b85565b91505061072f565b50604051339084907fc5a2deb0d12d76f6650018cf440e8729b18d155d60c8ac892a75bb69cefb335390600090a3604051339084907f6af574af323912882c3c771f24b2597234fcd2e9e72bf6f9aebbc23ff32f23fb90600090a3505050565b6000818152600160208181526040808420815160a0808201845282546001600160a01b031682529482015493810193909352600281015460ff161515838301528151938401909152839260608301906003830160058282826020028201915b81546001600160a01b031681526001909101906020018083116108ec57505050505081526020016008820180548060200260200160405190810160405280929190818152602001828054801561096b57602002820191906000526020600020905b81546001600160a01b0316815260019091019060200180831161094d575b505050505081525050905080604001511580610998575061025881602001516109949190610b5f565b4210155b156109a65750600092915050565b4261025882602001516109b99190610b5f565b6109c39190610b72565b9392505050565b6000805b6005811015610a2257826001600160a01b03168460030182600581106109f6576109f6610b9e565b01546001600160a01b031603610a10576001915050610a28565b80610a1a81610b85565b9150506109ce565b50600090505b92915050565b60045b8015610aa75760038301610a46600183610b72565b60058110610a5657610a56610b9e565b01546001600160a01b0316600384018260058110610a7657610a76610b9e565b0180546001600160a01b0319166001600160a01b039290921691909117905580610a9f81610bb4565b915050610a31565b5060039190910180546001600160a01b0319166001600160a01b03909216919091179055565b80356001600160a01b0381168114610ae457600080fd5b919050565b60008060408385031215610afc57600080fd5b82359150610b0c60208401610acd565b90509250929050565b600060208284031215610b2757600080fd5b6109c382610acd565b600060208284031215610b4257600080fd5b5035919050565b634e487b7160e01b600052601160045260246000fd5b80820180821115610a2857610a28610b49565b81810381811115610a2857610a28610b49565b600060018201610b9757610b97610b49565b5060010190565b634e487b7160e01b600052603260045260246000fd5b600081610bc357610bc3610b49565b50600019019056fea2646970667358221220106fca1543f58a223fb8a866662dcf71438a23bab48cfb181a1f4b21ee5ad1c064736f6c63430008140033",
  "devdoc": {
    "kind": "dev",
    "methods": {},
    "version": 1
  },
  "userdoc": {
    "kind": "user",
    "methods": {},
    "version": 1
  },
  "storageLayout": {
    "storage": [
      {
        "astId": 45,
        "contract": "contracts/HotPotato.sol:HotPotato",
        "label": "potatoCount",
        "offset": 0,
        "slot": "0",
        "type": "t_uint256"
      },
      {
        "astId": 53,
        "contract": "contracts/HotPotato.sol:HotPotato",
        "label": "potatoes",
        "offset": 0,
        "slot": "1",
        "type": "t_mapping(t_uint256,t_struct(Potato)41_storage)"
      },
      {
        "astId": 57,
        "contract": "contracts/HotPotato.sol:HotPotato",
        "label": "scores",
        "offset": 0,
        "slot": "2",
        "type": "t_mapping(t_address,t_uint256)"
      },
      {
        "astId": 63,
        "contract": "contracts/HotPotato.sol:HotPotato",
        "label": "passedAtIndex",
        "offset": 0,
        "slot": "3",
        "type": "t_mapping(t_uint256,t_mapping(t_address,t_uint256))"
      }
    ],
    "types": {
      "t_address": {
        "encoding": "inplace",
        "label": "address",
        "numberOfBytes": "20"
      },
      "t_array(t_address)5_storage": {
        "base": "t_address",
        "encoding": "inplace",
        "label": "address[5]",
        "numberOfBytes": "160"
      },
      "t_array(t_address)dyn_storage": {
        "base": "t_address",
        "encoding": "dynamic_array",
        "label": "address[]",
        "numberOfBytes": "32"
      },
      "t_bool": {
        "encoding": "inplace",
        "label": "bool",
        "numberOfBytes": "1"
      },
      "t_mapping(t_address,t_uint256)": {
        "encoding": "mapping",
        "key": "t_address",
        "label": "mapping(address => uint256)",
        "numberOfBytes": "32",
        "value": "t_uint256"
      },
      "t_mapping(t_uint256,t_mapping(t_address,t_uint256))": {
        "encoding": "mapping",
        "key": "t_uint256",
        "label": "mapping(uint256 => mapping(address => uint256))",
        "numberOfBytes": "32",
        "value": "t_mapping(t_address,t_uint256)"
      },
      "t_mapping(t_uint256,t_struct(Potato)41_storage)": {
        "encoding": "mapping",
        "key": "t_uint256",
        "label": "mapping(uint256 => struct HotPotato.Potato)",
        "numberOfBytes": "32",
        "value": "t_struct(Potato)41_storage"
      },
      "t_struct(Potato)41_storage": {
        "encoding": "inplace",
        "label": "struct HotPotato.Potato",
        "members": [
          {
            "astId": 29,
            "contract": "contracts/HotPotato.sol:HotPotato",
            "label": "holder",
            "offset": 0,
            "slot": "0",
            "type": "t_address"
          },
          {
            "astId": 31,
            "contract": "contracts/HotPotato.sol:HotPotato",
            "label": "receivedAt",
            "offset": 0,
            "slot": "1",
            "type": "t_uint256"
          },
          {
            "astId": 33,
            "contract": "contracts/HotPotato.sol:HotPotato",
            "label": "active",
            "offset": 0,
            "slot": "2",
            "type": "t_bool"
          },
          {
            "astId": 37,
            "contract": "contracts/HotPotato.sol:HotPotato",
            "label": "recentHolders",
            "offset": 0,
            "slot": "3",
            "type": "t_array(t_address)5_storage"
          },
          {
            "astId": 40,
            "contract": "contracts/HotPotato.sol:HotPotato",
            "label": "transferHistory",
            "offset": 0,
            "slot": "8",
            "type": "t_array(t_address)dyn_storage"
          }
        ],
        "numberOfBytes": "288"
      },
      "t_uint256": {
        "encoding": "inplace",
        "label": "uint256",
        "numberOfBytes": "32"
      }
    }
  }
}