{
  "address": "0x46047a8b73d94FD7EBf2Dd8c185a86B5F5a7cba0",
  "abi": [
    {
      "inputs": [],
      "stateMutability": "nonpayable",
      "type": "constructor"
    },
    {
      "anonymous": false,
      "inputs": [
        {
          "indexed": true,
          "internalType": "uint256",
          "name": "id",
          "type": "uint256"
        },
        {
          "indexed": true,
          "internalType": "address",
          "name": "holder",
          "type": "address"
        }
      ],
      "name": "PotatoBurned",
      "type": "event"
    },
    {
      "anonymous": false,
      "inputs": [
        {
          "indexed": true,
          "internalType": "uint256",
          "name": "id",
          "type": "uint256"
        },
        {
          "indexed": true,
          "internalType": "address",
          "name": "from",
          "type": "address"
        },
        {
          "indexed": true,
          "internalType": "address",
          "name": "to",
          "type": "address"
        },
        {
          "indexed": false,
          "internalType": "string",
          "name": "walrusCID",
          "type": "string"
        }
      ],
      "name": "PotatoPassed",
      "type": "event"
    },
    {
      "anonymous": false,
      "inputs": [
        {
          "indexed": true,
          "internalType": "uint256",
          "name": "id",
          "type": "uint256"
        },
        {
          "indexed": true,
          "internalType": "address",
          "name": "holder",
          "type": "address"
        }
      ],
      "name": "PotatoRewarded",
      "type": "event"
    },
    {
      "anonymous": false,
      "inputs": [
        {
          "indexed": true,
          "internalType": "address",
          "name": "player",
          "type": "address"
        },
        {
          "indexed": false,
          "internalType": "uint256",
          "name": "score",
          "type": "uint256"
        }
      ],
      "name": "ScoreUpdated",
      "type": "event"
    },
    {
      "inputs": [],
      "name": "TIME_LIMIT",
      "outputs": [
        {
          "internalType": "uint256",
          "name": "",
          "type": "uint256"
        }
      ],
      "stateMutability": "view",
      "type": "function"
    },
    {
      "inputs": [
        {
          "internalType": "uint256",
          "name": "id",
          "type": "uint256"
        }
      ],
      "name": "burnPotato",
      "outputs": [],
      "stateMutability": "nonpayable",
      "type": "function"
    },
    {
      "inputs": [
        {
          "internalType": "address",
          "name": "to",
          "type": "address"
        }
      ],
      "name": "createPotato",
      "outputs": [
        {
          "internalType": "uint256",
          "name": "id",
          "type": "uint256"
        }
      ],
      "stateMutability": "nonpayable",
      "type": "function"
    },
    {
      "inputs": [
        {
          "internalType": "uint256",
          "name": "id",
          "type": "uint256"
        }
      ],
      "name": "getPotatoHolder",
      "outputs": [
        {
          "internalType": "address",
          "name": "",
          "type": "address"
        }
      ],
      "stateMutability": "view",
      "type": "function"
    },
    {
      "inputs": [
        {
          "internalType": "address",
          "name": "player",
          "type": "address"
        }
      ],
      "name": "getScore",
      "outputs": [
        {
          "internalType": "uint256",
          "name": "",
          "type": "uint256"
        }
      ],
      "stateMutability": "view",
      "type": "function"
    },
    {
      "inputs": [
        {
          "internalType": "uint256",
          "name": "id",
          "type": "uint256"
        }
      ],
      "name": "getTimeLeft",
      "outputs": [
        {
          "internalType": "uint256",
          "name": "",
          "type": "uint256"
        }
      ],
      "stateMutability": "view",
      "type": "function"
    },
    {
      "inputs": [
        {
          "internalType": "uint256",
          "name": "id",
          "type": "uint256"
        }
      ],
      "name": "isActive",
      "outputs": [
        {
          "internalType": "bool",
          "name": "",
          "type": "bool"
        }
      ],
      "stateMutability": "view",
      "type": "function"
    },
    {
      "inputs": [],
      "name": "owner",
      "outputs": [
        {
          "internalType": "address",
          "name": "",
          "type": "address"
        }
      ],
      "stateMutability": "view",
      "type": "function"
    },
    {
      "inputs": [
        {
          "internalType": "uint256",
          "name": "id",
          "type": "uint256"
        },
        {
          "internalType": "address",
          "name": "to",
          "type": "address"
        },
        {
          "internalType": "string",
          "name": "walrusCID",
          "type": "string"
        }
      ],
      "name": "passPotato",
      "outputs": [],
      "stateMutability": "nonpayable",
      "type": "function"
    },
    {
      "inputs": [
        {
          "internalType": "uint256",
          "name": "",
          "type": "uint256"
        },
        {
          "internalType": "address",
          "name": "",
          "type": "address"
        }
      ],
      "name": "passedAtIndex",
      "outputs": [
        {
          "internalType": "uint256",
          "name": "",
          "type": "uint256"
        }
      ],
      "stateMutability": "view",
      "type": "function"
    },
    {
      "inputs": [],
      "name": "potatoCount",
      "outputs": [
        {
          "internalType": "uint256",
          "name": "",
          "type": "uint256"
        }
      ],
      "stateMutability": "view",
      "type": "function"
    },
    {
      "inputs": [
        {
          "internalType": "uint256",
          "name": "",
          "type": "uint256"
        }
      ],
      "name": "potatoes",
      "outputs": [
        {
          "internalType": "address",
          "name": "holder",
          "type": "address"
        },
        {
          "internalType": "uint256",
          "name": "receivedAt",
          "type": "uint256"
        },
        {
          "internalType": "bool",
          "name": "active",
          "type": "bool"
        }
      ],
      "stateMutability": "view",
      "type": "function"
    },
    {
      "inputs": [
        {
          "internalType": "address",
          "name": "",
          "type": "address"
        }
      ],
      "name": "scores",
      "outputs": [
        {
          "internalType": "uint256",
          "name": "",
          "type": "uint256"
        }
      ],
      "stateMutability": "view",
      "type": "function"
    }
  ],
  "transactionHash": "0x84475d8654a74eef14a02891dd74c72f5bb7596b666d0004183c2bb35313e318",
  "args": [],
  "numDeployments": 1,
  "solcInputHash": "2a4a40010f4378c2df94e61bdde0c004",
  "bytecode": "0x60a060405234801561001057600080fd5b5033608052608051610d1b61003e60003960008181610167015281816102ca01526103e30152610d1b6000f3fe608060405234801561001057600080fd5b50600436106100cf5760003560e01c8063acc9bdce1161008c578063d47875d011610066578063d47875d01461020a578063e774384d14610233578063e8c5876314610246578063e95a66231461025957600080fd5b8063acc9bdce146101a1578063c93ac53f146101b6578063ca7050d6146101df57600080fd5b8063361c5f41146100d4578063698224ae146100f05780637621c27d146100f957806376dd110f1461010c57806382afd23b1461012c5780638da5cb5b14610162575b600080fd5b6100dd60005481565b6040519081526020015b60405180910390f35b6100dd61025881565b6100dd610107366004610b4d565b6102bd565b6100dd61011a366004610b4d565b60026020526000908152604090205481565b61015261013a366004610b68565b60009081526001602052604090206002015460ff1690565b60405190151581526020016100e7565b6101897f000000000000000000000000000000000000000000000000000000000000000081565b6040516001600160a01b0390911681526020016100e7565b6101b46101af366004610b81565b6103d8565b005b6101896101c4366004610b68565b6000908152600160205260409020546001600160a01b031690565b6100dd6101ed366004610c08565b600360209081526000928352604080842090915290825290205481565b6100dd610218366004610b4d565b6001600160a01b031660009081526002602052604090205490565b6101b4610241366004610b68565b61067b565b6100dd610254366004610b68565b6108f1565b610296610267366004610b68565b60016020819052600091825260409091208054918101546002909101546001600160a01b039092169160ff1683565b604080516001600160a01b03909416845260208401929092521515908201526060016100e7565b6000336001600160a01b037f000000000000000000000000000000000000000000000000000000000000000016146103345760405162461bcd60e51b81526020600482015260156024820152744f6e6c79206f776e65722063616e2063726561746560581b60448201526064015b60405180910390fd5b6001600160a01b03821661037c5760405162461bcd60e51b815260206004820152600f60248201526e496e76616c6964206164647265737360881b604482015260640161032b565b600080815461038a90610c4a565b9182905550600081815260016020819052604090912080546001600160a01b0319166001600160a01b039590951694909417845542848201556002909301805460ff19169093179092555090565b336001600160a01b037f000000000000000000000000000000000000000000000000000000000000000016146104465760405162461bcd60e51b81526020600482015260136024820152724f6e6c79206f776e65722063616e207061737360681b604482015260640161032b565b6001600160a01b0383166104905760405162461bcd60e51b8152602060048201526011602482015270125b9d985b1a59081c9958da5c1a595b9d607a1b604482015260640161032b565b6000848152600160205260409020600281015460ff166104e75760405162461bcd60e51b8152602060048201526012602482015271506f7461746f20697320696e61637469766560701b604482015260640161032b565b61025881600101546104f99190610c63565b4211156105375760405162461bcd60e51b815260206004820152600c60248201526b151a5b5948195e1c1a5c995960a21b604482015260640161032b565b6105418185610a2e565b1561058e5760405162461bcd60e51b815260206004820152601e60248201527f526563697069656e7420697320696e20726563656e7420686f6c646572730000604482015260640161032b565b80546040516001600160a01b0380871692169087907f389d7d2f46b6535b7fbfce5d9a621ac58872826c447af609a490585f078b8451906105d29088908890610c76565b60405180910390a480546105f09082906001600160a01b0316610a92565b80546008820180546001818101835560008381526020902090910180546001600160a01b0319166001600160a01b0390941693909317909255546106349190610ca5565b600095865260036020908152604080882084546001600160a01b039081168a5292529096205580546001600160a01b03191693909416929092178355505042600190910155565b6000818152600160205260409020600281015460ff166106dd5760405162461bcd60e51b815260206004820152601760248201527f506f7461746f20616c726561647920696e616374697665000000000000000000604482015260640161032b565b80546001600160a01b0316331461072b5760405162461bcd60e51b81526020600482015260126024820152712737ba1031bab93932b73a103437b63232b960711b604482015260640161032b565b610258816001015461073d9190610c63565b421161077f5760405162461bcd60e51b81526020600482015260116024820152705374696c6c2077697468696e2074696d6560781b604482015260640161032b565b60028101805460ff19169055600881015460005b818110156108915760008360080182815481106107b2576107b2610cb8565b60009182526020808320909101548783526003825260408084206001600160a01b03909216808552919092529082205490925090816107f2600187610ca5565b6107fc9190610ca5565b6001600160a01b038416600090815260026020526040812080549293508392909190610829908490610c63565b90915550506001600160a01b0383166000818152600260209081526040918290205491519182527f66ead48cfe0e1d1aa8bad492e906c348dfcfeecbf3b7b2cdf9b1f3cfa42a2945910160405180910390a2505050808061088990610c4a565b915050610793565b50604051339084907fc5a2deb0d12d76f6650018cf440e8729b18d155d60c8ac892a75bb69cefb335390600090a3604051339084907f6af574af323912882c3c771f24b2597234fcd2e9e72bf6f9aebbc23ff32f23fb90600090a3505050565b6000818152600160208181526040808420815160a0808201845282546001600160a01b031682529482015493810193909352600281015460ff161515838301528151938401909152839260608301906003830160058282826020028201915b81546001600160a01b031681526001909101906020018083116109505750505050508152602001600882018054806020026020016040519081016040528092919081815260200182805480156109cf57602002820191906000526020600020905b81546001600160a01b031681526001909101906020018083116109b1575b5050505050815250509050806040015115806109fc575061025881602001516109f89190610c63565b4210155b15610a0a5750600092915050565b426102588260200151610a1d9190610c63565b610a279190610ca5565b9392505050565b6000805b6005811015610a8657826001600160a01b0316846003018260058110610a5a57610a5a610cb8565b01546001600160a01b031603610a74576001915050610a8c565b80610a7e81610c4a565b915050610a32565b50600090505b92915050565b60045b8015610b0b5760038301610aaa600183610ca5565b60058110610aba57610aba610cb8565b01546001600160a01b0316600384018260058110610ada57610ada610cb8565b0180546001600160a01b0319166001600160a01b039290921691909117905580610b0381610cce565b915050610a95565b5060039190910180546001600160a01b0319166001600160a01b03909216919091179055565b80356001600160a01b0381168114610b4857600080fd5b919050565b600060208284031215610b5f57600080fd5b610a2782610b31565b600060208284031215610b7a57600080fd5b5035919050565b60008060008060608587031215610b9757600080fd5b84359350610ba760208601610b31565b9250604085013567ffffffffffffffff80821115610bc457600080fd5b818701915087601f830112610bd857600080fd5b813581811115610be757600080fd5b886020828501011115610bf957600080fd5b95989497505060200194505050565b60008060408385031215610c1b57600080fd5b82359150610c2b60208401610b31565b90509250929050565b634e487b7160e01b600052601160045260246000fd5b600060018201610c5c57610c5c610c34565b5060010190565b80820180821115610a8c57610a8c610c34565b60208152816020820152818360408301376000818301604090810191909152601f909201601f19160101919050565b81810381811115610a8c57610a8c610c34565b634e487b7160e01b600052603260045260246000fd5b600081610cdd57610cdd610c34565b50600019019056fea26469706673582212206c8c2455eb79187d2a9ac83349828c4a99eba98e153ecf243c09c55aa847210d64736f6c63430008140033",
  "devdoc": {
    "kind": "dev",
    "methods": {},
    "version": 1
  },
  "userdoc": {
    "kind": "user",
    "methods": {},
    "version": 1
  },
  "storageLayout": {
    "storage": [
      {
        "astId": 47,
        "contract": "contracts/HotPotato.sol:HotPotato",
        "label": "potatoCount",
        "offset": 0,
        "slot": "0",
        "type": "t_uint256"
      },
      {
        "astId": 55,
        "contract": "contracts/HotPotato.sol:HotPotato",
        "label": "potatoes",
        "offset": 0,
        "slot": "1",
        "type": "t_mapping(t_uint256,t_struct(Potato)43_storage)"
      },
      {
        "astId": 59,
        "contract": "contracts/HotPotato.sol:HotPotato",
        "label": "scores",
        "offset": 0,
        "slot": "2",
        "type": "t_mapping(t_address,t_uint256)"
      },
      {
        "astId": 65,
        "contract": "contracts/HotPotato.sol:HotPotato",
        "label": "passedAtIndex",
        "offset": 0,
        "slot": "3",
        "type": "t_mapping(t_uint256,t_mapping(t_address,t_uint256))"
      }
    ],
    "types": {
      "t_address": {
        "encoding": "inplace",
        "label": "address",
        "numberOfBytes": "20"
      },
      "t_array(t_address)5_storage": {
        "base": "t_address",
        "encoding": "inplace",
        "label": "address[5]",
        "numberOfBytes": "160"
      },
      "t_array(t_address)dyn_storage": {
        "base": "t_address",
        "encoding": "dynamic_array",
        "label": "address[]",
        "numberOfBytes": "32"
      },
      "t_bool": {
        "encoding": "inplace",
        "label": "bool",
        "numberOfBytes": "1"
      },
      "t_mapping(t_address,t_uint256)": {
        "encoding": "mapping",
        "key": "t_address",
        "label": "mapping(address => uint256)",
        "numberOfBytes": "32",
        "value": "t_uint256"
      },
      "t_mapping(t_uint256,t_mapping(t_address,t_uint256))": {
        "encoding": "mapping",
        "key": "t_uint256",
        "label": "mapping(uint256 => mapping(address => uint256))",
        "numberOfBytes": "32",
        "value": "t_mapping(t_address,t_uint256)"
      },
      "t_mapping(t_uint256,t_struct(Potato)43_storage)": {
        "encoding": "mapping",
        "key": "t_uint256",
        "label": "mapping(uint256 => struct HotPotato.Potato)",
        "numberOfBytes": "32",
        "value": "t_struct(Potato)43_storage"
      },
      "t_struct(Potato)43_storage": {
        "encoding": "inplace",
        "label": "struct HotPotato.Potato",
        "members": [
          {
            "astId": 31,
            "contract": "contracts/HotPotato.sol:HotPotato",
            "label": "holder",
            "offset": 0,
            "slot": "0",
            "type": "t_address"
          },
          {
            "astId": 33,
            "contract": "contracts/HotPotato.sol:HotPotato",
            "label": "receivedAt",
            "offset": 0,
            "slot": "1",
            "type": "t_uint256"
          },
          {
            "astId": 35,
            "contract": "contracts/HotPotato.sol:HotPotato",
            "label": "active",
            "offset": 0,
            "slot": "2",
            "type": "t_bool"
          },
          {
            "astId": 39,
            "contract": "contracts/HotPotato.sol:HotPotato",
            "label": "recentHolders",
            "offset": 0,
            "slot": "3",
            "type": "t_array(t_address)5_storage"
          },
          {
            "astId": 42,
            "contract": "contracts/HotPotato.sol:HotPotato",
            "label": "transferHistory",
            "offset": 0,
            "slot": "8",
            "type": "t_array(t_address)dyn_storage"
          }
        ],
        "numberOfBytes": "288"
      },
      "t_uint256": {
        "encoding": "inplace",
        "label": "uint256",
        "numberOfBytes": "32"
      }
    }
  }
}